:100000000C9434000C9451000C9451000C94510049
:100010000C9451000C9451000C9451000C9451001C
:100020000C9451000C9451000C9451000C9451000C
:100030000C9451000C9451000C9451000C945100FC
:100040000C9451000C9451000C9451000C945100EC
:100050000C9451000C9451000C9451000C945100DC
:100060000C9451000C94510011241FBECFEFD8E026
:10007000DEBFCDBF11E0A0E0B1E0E4EEF3E002C0EE
:1000800005900D92AC35B107D9F721E0ACE5B1E0B0
:1000900001C01D92AA36B207E1F70E9453000C94EA
:1000A000F0010C94000087E60E9431010E943901A2
:1000B0000E943F010E944501789481E080935E0197
:1000C00080935D0180935C010E94DA0180E091E001
:1000D0000E94530114E604E6D4E680915F01882370
:1000E00009F482C080E691E00E949A01C82F813015
:1000F00041F51DC02FEF83ED90E3215080409040EB
:10010000E1F700C000000E94C901D82F0E946F01D2
:1001100088E591E00E94530180915F01882339F0C6
:1001200080E691E00E949A01843009F4C82FC13022
:1001300009F381E080935E0180E091E00E94530129
:1001400053C0823041F51DC02FEF83ED90E3215065
:1001500080409040E1F700C000000E94C901082FD4
:100160000E946F0188E591E00E94530180915F0138
:10017000882339F080E691E00E949A01843009F4E6
:10018000C82FC23009F381E080935D0180E091E0E7
:100190000E94530129C0833039F51DC02FEF83ED34
:1001A00090E3215080409040E1F700C000000E94A1
:1001B000C901182F0E946F0188E591E00E94530148
:1001C00080915F01882339F080E691E00E949A01D6
:1001D000843009F4C82FC33009F381E080935C01B7
:1001E00080E091E00E94530180915E01882341F0FC
:1001F0008D2F90E0909389008093880010925E018B
:1002000080915D01882341F0802F90E090938B00D6
:1002100080938A0010925D0180915C01882351F0E7
:100220001F3F19F0112319F003C01EEF01C011E0A8
:1002300010925C0185B18F7D85B917BD16BCA99B55
:10024000FECF85B3826085BB85B1806285B9812F81
:10025000809587BD16BCA99BFECF85B3826085BB08
:100260003CCF1092C10096E09093C2008093C400EE
:100270000895E1ECF0E08081886080830895E1ECEE
:10028000F0E08081806180830895E1ECF0E080817E
:100290008068808308958091C00085FFFCCF089519
:1002A0008093C6000895EF92FF920F931F93CF9310
:1002B0007C01C0E007C00E944B01F80180810E94D0
:1002C0005001CF5F87010C0F111DF8018081811152
:1002D000F2CFCF911F910F91FF90EF900895CF93A0
:1002E000DF93D82F0E944B0189E2D89F812D1124E2
:1002F00082958F70805D0E945001D4560E944B0100
:10030000CDECDC9FC12D1124C695C695C69580E322
:100310008C0F0E9450010E944B01CC0F8C2F880F34
:10032000880FC80F8D2F8C1B805D0E945001DF91BC
:10033000CF910895FC019081923531F481818A300A
:10034000E1F085E090E00895963531F481818A30BE
:10035000B9F482E090E00895913431F481818A30DB
:1003600091F483E090E00895933531F481818A30EF
:1003700069F484E090E00895089581E090E00895A4
:1003800085E090E0089585E090E0089585E090E0B4
:100390000895EAE7F0E080818064808380917A00AC
:1003A00084FFFCCFEAE7F0E0808180618083809168
:1003B0007900089586E284B981EF809380008DE012
:1003C0008093810082E084BD85E085BD88E08093D4
:1003D0007E0087E880937A0083E280937C00089512
:0403E000F894FFCFBF
:1003E400496E677265736520522070617261206D79
:1003F4006F6469666963617220726F6A6F2C20563C
:1004040020706172612076657264652C20412070D1
:1004140061726120617A756C2C2053207061726165
:10042400207061726120636F6E6669726D61722003
:0C04340063616D62696F73200D0A0000A7
:00000001FF
