:100000000C9464000C9479000C9479000C947900A1
:100010000C9479000C9479000C9479000C9479007C
:100020000C9479000C9479000C9479000C9479006C
:100030000C9479000C9479000C9479000C9479005C
:100040000C9479000C9479000C9479000C9479004C
:100050000C9479000C9479000C9479000C9479003C
:100060000C9479000C947900F402F802FC0200036D
:10007000040308030C031003140318031C032003D8
:10008000240328032C033003001F000000001F007E
:10009000001F101010101F00001F181818181F0044
:1000A000001F1C1C1C1C1F00001F1E1E1E1E1F00EC
:1000B000001F1F1F1F1F1F0003070F1F0F07030035
:1000C000181C1E1F1E1C180011241FBECFEFD8E0E5
:1000D000DEBFCDBF11E0A0E0B1E0EAEEF6E002C085
:1000E00005900D92A830B107D9F70E9434030C9403
:1000F00073030C94000065B1982F9074492F50E061
:1001000055954795559547955595479555954795D7
:10011000982F9078292F30E0022E232F000C221FD9
:10012000330B000C221F331F962F997F492B242B52
:1001300025B968B1982F9071492F50E05595479592
:100140005595479555954795982F9072292F30E0F2
:10015000359527953595279535952795962F997F30
:10016000492B242B28B99BB192609BB99BB191601C
:100170009BB92DE02A95F1F700009BB19E7F9BB9BA
:100180009BB19D7F9BB99DE09A95F1F7000065B109
:1001900020E1829FC0011124AC0140745527559580
:1001A00047955595479555954795559547959C0184
:1001B00020783327022E232F000C221F330B000C34
:1001C000221F331F362F397F432B242B25B948B1EB
:1001D0009C012071332735952795359527953595C1
:1001E00027958072992795958795959587959595EB
:1001F0008795942F997F292B822B88B98BB18260A8
:100200008BB98BB181608BB98DE08A95F1F70000D5
:100210008BB18E7F8BB98BB18D7F8BB99DE09A9519
:10022000F1F70000089565B1982F9074492F50E0C0
:1002300055954795559547955595479555954795A6
:10024000982F9078292F30E0022E232F000C221FA8
:10025000330B000C221F331F962F997F492B242B21
:1002600025B968B1982F9071492F50E05595479561
:100270005595479555954795982F9072292F30E0C1
:10028000359527953595279535952795962F997FFF
:10029000492B242B28B99BB191609BB9E9EFF0E081
:1002A0003197F1F700C000009BB19E7F9BB9E9EF49
:1002B000F0E03197F1F700C0000065B1F0E18F9FE9
:1002C000C0011124AC0140745527559547955595AB
:1002D000479555954795559547959C012078332727
:1002E000022E232F000C221F330B000C221F331F62
:1002F000362F397F432B242B25B948B19C0120711F
:10030000332735952795359527953595279580720F
:100310009927959587959595879595958795942F88
:10032000997F292B822B88B98BB181608BB989EF9A
:1003300090E00197F1F700C000008BB18E7F8BB980
:10034000E9EFF0E03197F1F700C0000008950F9356
:100350001F93CF93DF93009769F0D62F8C01C0E0F5
:1003600007C0F801EC0FF11D80810E947B00CF5F78
:10037000CD17B8F3DF91CF911F910F91089562309F
:1003800031F0633031F0613029F4805C03C08C5E61
:1003900001C08C5A80680E9413010895EF92FF9269
:1003A0000F931F93CF93DF937C01862F90E0880FEC
:1003B000991F880F991F880F991F8064C0E0D0E0B3
:1003C0000DC0F701EC0FFD1F149101E0080F0E9412
:1003D0001301812F0E947B002196802FC830D10508
:1003E00080F3DF91CF911F910F91FF90EF900895CF
:1003F000CF93DF9385EA9EE00197F1F700C00000FC
:1004000085B1897F85B988B1897F88B91BB887B1E3
:10041000866087B984B1866084B984B1866084B906
:1004200087B1866087B98AB183608AB985B1897FCF
:1004300085B988B1866088B98BB181608BB989EF45
:1004400090E00197F1F700C000008BB18E7F8BB96F
:1004500089EF90E00197F1F700C0000085B1897F36
:1004600085B988B1866088B98BB181608BB989EF15
:1004700090E00197F1F700C000008BB18E7F8BB93F
:1004800089EF90E00197F1F700C0000085B1897F06
:1004900085B988B1897F846088B98BB181608BB957
:1004A00089EF90E00197F1F700C000008BB18E7FDB
:1004B0008BB989EF90E00197F1F700C0000088E266
:1004C0000E9413018CE00E94130160E0C0E00AC0AA
:1004D000D1E0D60F8C2F90E088579F4F0E94CE011D
:1004E000C85F6D2FC034A0F3DF91CF910895FC0158
:1004F00040E050E066C095B1996195B99BB19068B4
:100500009BB99BB19C639BB94130510581F024F4A8
:100510004115510541F016C04230510561F043309C
:10052000510569F00FC085B18F7E85B90BC085B1CB
:10053000877F85B907C085B18E7F85B903C08BB130
:100540008F778BB98FE19EE40197F1F700C000002F
:1005500020E030E031C021303105A1F024F4211534
:10056000310541F027C022303105A1F0233031059B
:10057000C9F020C04B991EC0440F440F240F2083A4
:1005800081E008954D9916C0440F440F240F208335
:1005900081E008954C990EC0440F440F240F20832E
:1005A00081E008954A9906C0440F440F240F208328
:1005B00081E008952F5F3F4F2430310564F24F5F93
:1005C0005F4F443051050CF496CF80E00895DC0174
:1005D000EC914E2F50E04031510508F044C0FA0133
:1005E000EC5CFF4F0C946D0321E3FC012083089524
:1005F00022E3DC012C93089523E3FC01208308957A
:1006000021E4DC012C93089524E3FC012083089568
:1006100025E3DC012C93089526E3FC012083089553
:1006200022E4DC012C93089527E3FC012083089544
:1006300028E3DC012C93089529E3FC01208308952D
:1006400023E4DC012C9308952AE2FC012083089521
:1006500020E3DC012C93089523E2FC01208308951C
:1006600024E4DC012C930895CF93DF931F92CDB740
:10067000DEB784B1896184B98AB180688AB98AB1E8
:100680008AB92FEF83ED90E3215080409040E1F74D
:1006900000C000000E94F80160E080E00E94BF01FD
:1006A00067E080E091E00E94A70160E087E00E949F
:1006B000BF01CE0101960E947702882339F0CE0156
:1006C00001960E94E70289810E947B008FE39CE9EA
:1006D0000197F1F700C00000E8CFEE0FFF1F059073
:0A06E000F491E02D0994F894FFCF87
:0806EA005465636C613A2000C5
:00000001FF
