S0100000456A5F636C6173652E73726563FE
S11300000C9434000C9446000C9446000C94460066
S11300100C9446000C9446000C9446000C94460044
S11300200C9446000C9446000C9446000C94460034
S11300300C9446000C9446000C9446000C94460024
S11300400C9446000C9446000C9446000C94460014
S11300500C9446000C9446000C9446000C94460004
S11300600C9446000C94460011241FBECFEFD8E038
S1130070DEBFCDBF21E0A0E0B1E001C01D92A03001
S1130080B207E1F70E9448000C945B000C94000056
S113009088E08093C10086E08093C20087E6809365
S11300A0C400E0ECF0E0A6ECB0E097E4808185FFCA
S10D00B0FDCF9C93FBCFF894FFCF23
S9030000FC
