S00B00005470342E7372656321
S11300000C9434000C9451000C9451000C94510045
S11300100C9451000C9451000C9451000C94510018
S11300200C9451000C9451000C9451000C94510008
S11300300C9451000C9451000C9451000C945100F8
S11300400C9451000C9451000C94F9010C9451003F
S11300500C9451000C9451000C9451000C945100D8
S11300600C9451000C94510011241FBECFEFD8E022
S1130070DEBFCDBF11E0A0E0B1E0E0E8F4E002C0F3
S113008005900D92AE35B107D9F721E0AEE5B1E0A8
S113009001C01D92AE36B207E1F70E9453000C94E2
S11300A03E020C9400000E9436010E94410180E847
S11300B090E0909389008093880090938B008093C4
S11300C08A000E94570100E810E8C0E880915E01B0
S11300D0882309F473C00E94F601D82F813029F5D2
S11300E017C02FEF83ED90E3215080409040E1F75B
S11300F000C000000E945C01C82F0E946D01809125
S11301005E01882329F00E94F601843009F4D82F77
S1130110D13039F3CF3F19F0CC2319F003C0CEEF1F
S113012001C0C1E00E94570149C0823019F517C0CF
S11301302FEF83ED90E3215080409040E1F700C021
S113014000000E945C01182F0E946D0180915E01E5
S1130150882329F00E94F601843009F4D82FD23084
S113016039F3812F90E090938B0080938A000E9452
S1130170570124C0833011F517C02FEF83ED90E3AE
S1130180215080409040E1F700C000000E945C01D3
S1130190082F0E946D0180915E01882329F00E943E
S11301A0F601843009F4D82FD33039F3802F90E04E
S11301B090938900809388000E94570185B18F7DB8
S11301C085B9C7BD16BCA99BFECF85B3826085BB2C
S11301D085B1806285B98C2F809587BD16BCA99B9B
S11301E0FECF85B3826085BB71CF1092C10096E0CB
S11301F09093C2008093C4000895E1ECF0E0808104
S1130200886080830895E1ECF0E0808180618083E0
S11302100895E1ECF0E08081806880830895809106
S1130220C00085FFFCCF08958093C6000895EF9227
S1130230FF920F931F93CF937C01C0E007C00E94ED
S11302400F01F80180810E941401CF5F87010C0F18
S1130250111DF80180818111F2CFCF911F910F916F
S1130260FF90EF9008958091C600089587E60E945C
S1130270F5000E94FD000E9403010E940901789488
S1130280089582E084BD85E085BD86E284B981EF6E
S1130290809380008DE08093810088E080937E00CD
S11302A087E880937A0083E280937C00089580E05D
S11302B091E00E9417010895EAE7F0E080818064EC
S11302C0808380917A0084FFFCCFEAE7F0E08081AC
S11302D080618083809179000895CF93DF93D82F34
S11302E01092600189E2D89F812D112482958F702C
S11302F080935F01882351F081E0809360010E9424
S11303000F0180915F01805D0E941401C9E2DC9FAE
S1130310C12D1124C295CF7084E6C89FD019112431
S1130320CD2F8DECD89F812D1124869586958695A9
S113033080935F01882341F00E940F0180915F0147
S1130340805D0E9414010DC080916001813049F4E8
S11303500E940F0180915F01805D0E941401109240
S113036060018DECC89F812D112486958695869514
S1130370880F982F990F990F890FC81BC0935F019D
S11303800E940F0180915F01805D0E9414010E9410
S11303900F018BE591E00E941701DF91CF91089541
S11303A080916401823521F4909165019A30A1F025
S11303B0863521F4909165019A3081F0813421F4DD
S11303C0909165019A3061F0833561F48091650103
S11303D08A3051F080E0089581E0089582E0089524
S11303E083E0089580E0089584E008958091620197
S11303F008951F920F920FB60F9211242F933F93DB
S11304004F935F936F937F938F939F93AF93BF9318
S1130410EF93FF930E943301809363018D3059F071
S113042090916101E92FF0E0EC59FE4F80839F5FCA
S11304309093610112C0E0916101F0E0EC59FE4F2C
S11304408AE080830E94D00180936201882319F09E
S113045081E080935E0110926101FF91EF91BF9161
S1130460AF919F918F917F916F915F914F913F9148
S11304702F910F900FBE0F901F901895F894FFCFF7
S1130480496E677265736520522070617261206DD8
S11304906F6469666963617220726F6A6F2C20569B
S11304A020706172612076657264652C2041207031
S11304B061726120617A756C2C20532070617261C5
S11304C0207061726120636F6E6669726D61722063
S11104D063616D62696F73200D0A000D0A00EE
S9030000FC
