S00B00005470312E7372656324
S11300000C9434000C943E000C943E000C943E007E
S11300100C943E000C943E000C943E000C943E0064
S11300200C943E000C943E000C943E000C943E0054
S11300300C943E000C943E000C943E000C943E0044
S11300400C943E000C943E000C943E000C943E0034
S11300500C943E000C943E000C943E000C943E0024
S11300600C943E000C943E0011241FBECFEFD8E048
S1130070DEBFCDBF0E9440000C9476000C940000BB
S113008087B18E7F87B988B1816088B98FEF84B9D1
S1130090309B16C08AEA85B92FEF81EE94E0215097
S11300A080409040E1F700C0000015B82FEF81EECA
S11300B094E0215080409040E1F700C00000E8CF78
S11300C085E585B92FEF81EE94E021508040904082
S11300D0E1F700C0000015B82FEF81EE94E0215045
S11300E080409040E1F700C00000D2CFF894FFCFE9
S9030000FC
