:100000000C9434000C9449000C9449000C94490061
:100010000C9449000C9449000C9449000C9449003C
:100020000C9449000C9449000C9449000C9449002C
:100030000C9449000C9449000C9449000C9449001C
:100040000C9449000C9449000C9449000C9449000C
:100050000C9449000C9449000C9449000C944900FC
:100060000C9449000C94490011241FBECFEFD8E036
:10007000DEBFCDBF11E0A0E0B1E0E0EBF1E002C0F7
:1000800005900D92A831B107D9F70E944B000C944E
:10009000D6000C940000CF93DF93CDB7DEB76897FE
:1000A0000FB6F894DEBF0FBECDBF88E1E0E0F1E00F
:1000B000DE01119601900D928A95E1F782E084B9F4
:1000C00080E4809380008CE08093810000E010E069
:1000D00028C0F801EE0FFF1F81E090E08C0F9D1FFC
:1000E000E80FF91F808120E0382F330F032E000C1A
:1000F000440B550B60E074E284EF90E00E949500A1
:100100002150310930938900209388009FEF27EA1E
:1001100081E6915020408040E1F700C000000F5F71
:100120001F4F0C301105ACF2D1CF052E97FB1EF4FA
:1001300000940E94AC0057FD07D00E94B40007FC59
:1001400003D04EF40C94AC00509540953095219519
:100150003F4F4F4F5F4F08959095809570956195F3
:100160007F4F8F4F9F4F0895A1E21A2EAA1BBB1BF2
:10017000FD010DC0AA1FBB1FEE1FFF1FA217B30773
:10018000E407F50720F0A21BB30BE40BF50B661F89
:10019000771F881F991F1A9469F76095709580954D
:1001A00090959B01AC01BD01CF010895F894FFCF5C
:1001B00006011501260137014A015D01720188011E
:0801C0009F01B801D201EE011C
:00000001FF
