:100000000C946B000C9488000C9488000C9488006D
:100010000C9488000C9488000C9488000C94880040
:100020000C9488000C9488000C9488000C94880030
:100030000C9488000C9488000C9488000C94880020
:100040000C94F1030C9488000C9488000C948800A4
:100050000C9488000C9488000C9488000C94880000
:100060000C9488000C9488003205410570059F05AA
:10007000070635066106120716071A071E0722072C
:1000800026072A072E07320736073A073E07420798
:1000900046074A074E07001F000000001F00001F10
:1000A000101010101F00001F181818181F00001F34
:1000B0001C1C1C1C1F00001F1E1E1E1E1F00001FDC
:1000C0001F1F1F1F1F0003070F1F0F070300181C10
:1000D0001E1F1E1C180011241FBECFEFD8E0DEBF6C
:1000E000CDBF11E0A0E0B1E0ECE1FFE002C005907F
:1000F0000D92A031B107D9F721E0A0E1B1E001C034
:100100001D92A731B207E1F70E94BC030C948C0743
:100110000C94000065B1982F9074492F50E05595CC
:100120004795559547955595479555954795982FDA
:100130009078292F30E0022E232F000C221F330B42
:10014000000C221F331F962F997F492B242B25B992
:1001500068B1982F9071492F50E055954795559566
:10016000479555954795982F9072292F30E03595F2
:1001700027953595279535952795962F997F492B66
:10018000242B28B99BB192609BB99BB191609BB91C
:1001900025ED2A95F1F700009BB19E7F9BB99BB19D
:1001A0009D7F9BB995ED9A95F1F7000065B120E12F
:1001B000829FC0011124AC01407455275595479585
:1001C0005595479555954795559547959C012078A8
:1001D0003327022E232F000C221F330B000C221F6B
:1001E000331F362F397F432B242B25B948B19C016F
:1001F0002071332735952795359527953595279582
:10020000807299279595879595958795959587956A
:10021000942F997F292B822B88B98BB182608BB95F
:100220008BB181608BB985ED8A95F1F700008BB1B8
:100230008E7F8BB98BB18D7F8BB995ED9A95F1F748
:100240000000089565B1982F9074492F50E055959E
:100250004795559547955595479555954795982FA9
:100260009078292F30E0022E232F000C221F330B11
:10027000000C221F331F962F997F492B242B25B961
:1002800068B1982F9071492F50E055954795559535
:10029000479555954795982F9072292F30E03595C1
:1002A00027953595279535952795962F997F492B35
:1002B000242B28B99BB191609BB9EFE9FFE03197FE
:1002C000F1F700C000009BB19E7F9BB9EFE9FFE012
:1002D0003197F1F700C0000065B1F0E18F9FC001D8
:1002E0001124AC0140745527559547955595479570
:1002F00055954795559547959C0120783327022EB3
:10030000232F000C221F330B000C221F331F362F0C
:10031000397F432B242B25B948B19C012071332709
:100320003595279535952795359527958072992789
:10033000959587959595879595958795942F997F10
:10034000292B822B88B98BB181608BB98FE99FE013
:100350000197F1F700C000008BB18E7F8BB9EFE9F8
:10036000FFE03197F1F700C00000089581E00E949E
:10037000220108950F931F93CF93DF93009769F0A5
:10038000D62F8C01C0E007C0F801EC0FF11D808171
:100390000E948A00CF5FCD17B8F3DF91CF911F91F4
:1003A0000F910895623031F0633031F0613029F4FB
:1003B000805C03C08C5E01C08C5A80680E94220160
:1003C0000895EF92FF920F931F93CF93DF937C01D9
:1003D000862F90E0880F991F880F991F880F991F0B
:1003E0008064C0E0D0E00DC0F701EC0FFD1F149158
:1003F00001E0080F0E942201812F0E948A002196AD
:10040000802FC830D10580F3DF91CF911F910F91DC
:10041000FF90EF900895CF93DF938FE59AEE0197C9
:10042000F1F700C0000085B1897F85B988B1897F67
:1004300088B91BB887B1866087B984B1866084B9F2
:1004400084B1866084B987B1866087B98AB18360D8
:100450008AB985B1897F85B988B1866088B98BB141
:1004600081608BB98FE99FE00197F1F700C0000030
:100470008BB18E7F8BB98FE99FE00197F1F700C0B8
:10048000000085B1897F85B988B1866088B98BB154
:1004900081608BB98FE99FE00197F1F700C0000000
:1004A0008BB18E7F8BB98FE99FE00197F1F700C088
:1004B000000085B1897F85B988B1897F846088B95A
:1004C0008BB181608BB98FE99FE00197F1F700C094
:1004D00000008BB18E7F8BB98FE99FE00197F1F718
:1004E00000C0000088E20E9422018CE00E942201EC
:1004F00060E0C0E00AC0D1E0D60F8C2F90E08A56B1
:100500009F4F0E94E101C85F6D2FC034A0F3DF91BF
:10051000CF910895EF92FF920F931F93CF93DF93A4
:1005200000D000D01F92CDB7DEB77B01FE0131961F
:1005300025E0DF011D922A95E9F724E030E00FC0A5
:100540006AE070E00E945E07E1E0F0E0EC0FFD1F62
:10055000E20FF31F8083862F972F215031090097D8
:1005600079F7BFEFEB16FB0681F403C00F5F1F4F57
:1005700002C000E010E0E1E0F0E0EC0FFD1FE00F52
:10058000F11F2081222391F304C005E010E00E1931
:100590001F09992384F48DE20E948A000CC0E1E0D7
:1005A000F0E0EC0FFD1FE00FF11F8081805D0E94E5
:1005B0008A000F5F1F4F053011058CF30F900F90CD
:1005C0000F900F900F90DF91CF911F910F91FF909F
:1005D000EF9008958091050164E60E945207911101
:1005E00008C08091050190E060E971E00E945E071B
:1005F00008958091050183700895CF93DF9361E0A2
:1006000084E00E94D201C0E0D1E08B8162E070E022
:1006100090E00E948A028FE20E948A008C8162E050
:1006200070E090E00E948A028FE20E948A008D8131
:1006300062E070E090E00E948A0260E084E00E9444
:10064000D2018A8162E070E090E00E948A028AE32F
:100650000E948A00898162E070E090E00E948A0234
:100660008AE30E948A00888162E070E090E00E9444
:100670008A02DF91CF910895E0E0F1E080818F5F01
:1006800080838C3309F064C0108281818F5F818305
:100690008C3309F05DC0118282818F5F8283883143
:1006A00009F056C0128283818F5F8383803231F4D8
:1006B00084818F5F848381E083833FC080910301C5
:1006C0008F31C1F480910401843061F08091040184
:1006D000863041F080910401893021F0809104013D
:1006E0008B3059F5E0E0F1E084818F5F848381E015
:1006F000838323C0809103018E3161F480910401D2
:100700008230D9F4E0E0F1E084818F5F848381E07E
:10071000838313C0809103018D3179F480910401AA
:10072000823059F40E94EA02882339F0E0E0F1E0D7
:1007300084818F5F848381E08383809104018D3085
:1007400039F4E0E0F1E081E0848385818F5F858387
:10075000089584B1896184B98AB180688AB98AB1FF
:100760008AB914BC85E085BD84E686BDEEE6F0E07E
:1007700080818160808308950E94A90378940E94FB
:100780000B028FE19EE40197F1F700C000000E9488
:10079000B6018FE19EE40197F1F700C000000E94CE
:1007A000FD0280E00E94350460E071E08091160156
:1007B0000E9421058FEF8093160186E191E00E944F
:1007C0009506882389F386E191E00E9405079FEF53
:1007D00029E688E1915020408040E1F700C0000008
:1007E000E3CF1F920F920FB60F9211242F933F93D6
:1007F0004F935F936F937F938F939F93AF93BF9329
:10080000EF93FF9384E686BD8091100190911101D2
:100810000196909311018093100184369105A1F403
:100820000E943C034091000150910101609102013E
:100830007091030180910401909105010E948D0443
:100840001092110110921001FF91EF91BF91AF91A1
:100850009F918F917F916F915F914F913F912F91D8
:100860000F900FBE0F901F9018958093150108955B
:1008700060911301809114010E94D20180911201B4
:10088000811109C081E08093120162E08CE091E067
:100890000E94BA01089510921201809115018330CF
:1008A00061F028F48130C9F0823079F00895853004
:1008B00021F1D8F0863049F108958091090162E074
:1008C00070E090E00E948A02089580910A0162E03F
:1008D00070E090E00E948A02089580910B0162E02E
:1008E00070E090E00E948A0208958091080162E021
:1008F00070E090E00E948A0208958091070162E012
:1009000070E090E00E948A0208958091060162E002
:1009100070E090E00E948A020895CF93DF9300D0A8
:1009200000D000D0CDB7DEB749835A836B837C8378
:100930008D839E8380911501882319F00E943804CD
:1009400038C061E084E00E94D2018C8162E070E0F6
:1009500090E00E948A028FE20E948A008D8162E00C
:1009600070E090E00E948A028FE20E948A008E81ED
:1009700062E070E090E00E948A0260E084E00E9401
:10098000D2018B8162E070E090E00E948A028AE3EB
:100990000E948A008A8162E070E090E00E948A02F0
:1009A0008AE30E948A00898162E070E090E00E9400
:1009B0008A0226960FB6F894DEBF0FBECDBFDF9138
:1009C000CF910895CF93DF9361E084E00E94D2013C
:1009D000C6E0D1E08B8162E070E090E00E948A0284
:1009E0008FE20E948A008C8162E070E090E00E94B9
:1009F0008A028FE20E948A008D8162E070E090E0BE
:100A00000E948A0260E084E00E94D2018A8162E052
:100A100070E090E00E948A028AE30E948A00898145
:100A200062E070E090E00E948A028AE30E948A00FD
:100A3000888162E070E090E00E948A02DF91CF91AD
:100A40000895CF93DF93DB01E09115014E2F50E025
:100A50004730510508F066C1ED01FA01EC5CFF4F2B
:100A60000C947207813409F05DC186E0FD01A6E0B7
:100A7000B1E001900D928A95E1F781E08093150134
:100A800051C19AE09093140191E090931301813445
:100A900031F482E0809315010E94E20443C1823464
:100AA00059F4E6E0F1E085818F5F8583843609F0B3
:100AB00039C110920B0136C1833461F4E6E0F1E0F4
:100AC0008581815085838F3F09F02CC183E6809317
:100AD0000B0128C1843409F025C11092150122C1EF
:100AE00097E09093140191E090931301813431F4D5
:100AF00083E0809315010E94E20414C1823461F402
:100B0000E6E0F1E084818F5F84838D3009F00AC1D3
:100B100081E080930A0106C1833459F4E6E0F1E0F4
:100B20008481815084838111FDC08CE080930A010F
:100B3000F9C0843409F0F6C010921501F3C094E0B6
:100B40009093140191E090931301813431F484E087
:100B5000809315010E94E204E5C0823459F5E6E075
:100B6000F1E083818F5F83839481913061F09330D2
:100B700051F0953041F0973031F0983021F09A30B3
:100B800011F09C3039F4803209F0CCC081E08093C0
:100B90000901C8C0923039F48D3109F0C3C081E039
:100BA00080930901BFC08F3109F0BCC081E0809300
:100BB0000901B8C0833429F5E6E0F1E08381815072
:100BC00083838111AFC080910A01813061F083304D
:100BD00051F0853041F0873031F0883021F08A3093
:100BE00011F08C3021F48FE1809309019BC0823099
:100BF00021F48CE18093090195C08EE18093090175
:100C000091C0843409F08EC0109215018BC094E01D
:100C10009093140110921301813431F485E0809394
:100C200015010E94E2047EC0823459F4E6E0F1E04E
:100C300082818F5F8283883109F074C0109208012D
:100C400071C0833461F4E6E0F1E0828181508283F7
:100C50008F3F09F067C087E18093080163C0843447
:100C600009F060C0109215015DC097E090931401E7
:100C700010921301813431F486E0809315010E94B3
:100C8000E20450C0823459F4E6E0F1E081818F5FE4
:100C900081838C3309F046C01092070143C083342E
:100CA00059F4E6E0F1E08181815081838F3FD1F5F5
:100CB0008BE38093070136C08434A1F510921501AF
:100CC00031C09AE09093140110921301813469F4B9
:100CD000109215010E94E20486E0E6E0F1E0DE01F8
:100CE00001900D928A95E1F71DC0823451F4E6E03F
:100CF000F1E080818F5F80838C33A1F41092060134
:100D000011C0833459F4E6E0F1E0808181508083A2
:100D10008F3F41F48BE38093060104C0843411F4C7
:100D200010921501DF91CF910895FC0140E050E051
:100D300066C095B1996195B99BB190689BB99BB11B
:100D40009C639BB94130510581F024F44115510554
:100D500041F016C04230510561F04330510569F051
:100D60000FC085B18F7E85B90BC085B1877F85B9EE
:100D700007C085B18E7F85B903C08BB18F778BB9E2
:100D80008FE19EE40197F1F700C0000020E030E021
:100D900031C021303105A1F024F42115310541F095
:100DA00027C022303105A1F023303105C9F020C021
:100DB0004B991EC0440F440F240F208381E00895F7
:100DC0004D9916C0440F440F240F208381E00895ED
:100DD0004C990EC0440F440F240F208381E00895E6
:100DE0004A9906C0440F440F240F208381E00895E0
:100DF0002F5F3F4F2430310564F24F5F5F4F443027
:100E000051050CF496CF80E00895DC01EC914E2F53
:100E100050E04031510508F044C0FA01E55CFF4F55
:100E20000C94720721E3FC012083089522E3DC0186
:100E30002C93089523E3FC012083089521E4DC0131
:100E40002C93089524E3FC012083089525E3DC011D
:100E50002C93089526E3FC012083089522E4DC010D
:100E60002C93089527E3FC012083089528E3DC01F7
:100E70002C93089529E3FC012083089523E4DC01E9
:100E80002C9308952AE2FC012083089520E3DC01DD
:100E90002C93089523E2FC012083089524E4DC01CF
:100EA0002C930895991B79E004C0991F961708F0B8
:100EB000961B881F7A95C9F78095089597FB072E92
:100EC00016F4009407D077FD09D00E94780707FC3C
:100ED00005D03EF4909581959F4F0895709561954A
:100EE0007F4F0895EE0FFF1F0590F491E02D0994B8
:100EF000AA1BBB1B51E107C0AA1FBB1FA617B70740
:100F000010F0A61BB70B881F991F5A95A9F780955B
:0C0F10009095BC01CD010895F894FFCF2E
:100F1C003B3B171F0C15383A171304152020000003
:00000001FF
