:100000000C9434000C9451000C9451000C94510049
:100010000C9451000C9451000C9451000C9451001C
:100020000C9451000C9451000C9451000C9451000C
:100030000C9451000C9451000C9451000C945100FC
:100040000C9451000C9451000C9433020C949102C6
:100050000C9451000C9451000C9451000C945100DC
:100060000C9451000C94510011241FBECFEFD8E026
:10007000DEBFCDBF11E0A0E0B1E0EAEDF8E002C0E4
:1000800005900D92A83AB107D9F721E0A8EAB1E0AE
:1000900001C01D92AD3CB207E1F70E94D8010C945B
:1000A0006B040C9400001092B1011092B0011092F8
:1000B000AF011092AE011092AD011092AC011092FE
:1000C000AB011092AA011092A9011092A80127B1C8
:1000D000216027B928B1216028B92FEF39EFE0E07E
:1000E00021503040E040E1F700C0000028B12E7FF1
:1000F00028B9FFEF20EE30E0F15020403040E1F72A
:1001000000C0000027B12E7F27B928B1216028B98F
:100110003099FECF309BFECF1092C0011092BF01EC
:1001200032C03099FECF309BFECF20E030E006C0D9
:10013000E5E0EA95F1F700002F5F3F4F3099F8CFE7
:100140002D3131055CF42091B0013091B101220FC5
:10015000331F3093B1012093B0010BC02091B00147
:100160003091B101220F331F21603093B1012093F0
:10017000B0012091BF013091C0012F5F3F4F3093FC
:10018000C0012093BF012091BF013091C0012830F0
:1001900031053CF21092C0011092BF0132C030997B
:1001A000FECF309BFECF20E030E006C0F5E0FA95B0
:1001B000F1F700002F5F3F4F3099F8CF2D31310517
:1001C0005CF42091AE013091AF01220F331F3093C8
:1001D000AF012093AE010BC02091AE013091AF0171
:1001E000220F331F21603093AF012093AE01209185
:1001F000BF013091C0012F5F3F4F3093C00120936A
:10020000BF012091BF013091C001283031053CF27F
:100210001092C0011092BF0132C03099FECF309BC6
:10022000FECF20E030E006C0E5E0EA95F1F70000FF
:100230002F5F3F4F3099F8CF2D3131055CF420917D
:10024000AC013091AD01220F331F3093AD012093EB
:10025000AC010BC02091AC013091AD01220F331FD6
:1002600021603093AD012093AC012091BF0130910A
:10027000C0012F5F3F4F3093C0012093BF012091F9
:10028000BF013091C001283031053CF21092C0010D
:100290001092BF0132C03099FECF309BFECF20E0DC
:1002A00030E006C0F5E0FA95F1F700002F5F3F4F10
:1002B0003099F8CF2D3131055CF42091AA013091AD
:1002C000AB01220F331F3093AB012093AA010BC067
:1002D0002091AA013091AB01220F331F216030938E
:1002E000AB012093AA012091BF013091C0012F5F83
:1002F0003F4F3093C0012093BF012091BF01309147
:10030000C001283031053CF21092C0011092BF01AB
:1003100032C03099FECF309BFECF20E030E006C0E7
:10032000E5E0EA95F1F700002F5F3F4F3099F8CFF5
:100330002D3131055CF42091A8013091A901220FE3
:10034000331F3093A9012093A8010BC02091A8016D
:100350003091A901220F331F21603093A90120930E
:10036000A8012091BF013091C0012F5F3F4F309312
:10037000C0012093BF012091BF013091C0012830FE
:1003800031053CF22091AC013091AD01FC0131838B
:1003900020838091AA019091AB01FB01918380831E
:1003A0008091B0019091B101FA0191838083089509
:1003B00087E60E943C030E9444030E9456030E9469
:1003C0005C03789483E090E09093B9018093B80146
:1003D00081E090E09093BC018093BB010E944A03AE
:1003E0008091BD01882329F183EC91E00E94A10353
:1003F0008091B8019091B901039749F481E090E0B0
:100400009093BC018093BB010E944A030EC080916F
:10041000B8019091B901049741F481E090E0909384
:10042000BC018093BB010E944A031092BD0110924F
:10043000BA018091B8019091B901019789F62FEF27
:1004400085EB95E3215080409040E1F700C000002B
:100450000E94680381E090E09093BC018093BB010F
:100460000E944A03BDCF1F920F920FB60F92112424
:100470002F933F934F935F936F937F938F939F93AC
:10048000AF93BF93EF93FF930E9450038091BA0103
:1004900081110EC08091B8019091B9019093C20171
:1004A0008093C10182E090E09093B9018093B801FC
:1004B0000E9465038093BE018091BE018D3071F072
:1004C000E091BA01F0E08091BE01ED53FE4F8083D0
:1004D0008091BA018F5F8093BA0112C0E091BA0196
:1004E000F0E0ED53FE4F8AE0808381E08093BD0110
:1004F0008091C1019091C2019093B9018093B8019C
:10050000FF91EF91BF91AF919F918F917F916F91EB
:100510005F914F913F912F910F900FBE0F901F90C1
:1005200018951F920F920FB60F9211242F933F939D
:100530004F935F936F937F938F939F93AF93BF93EB
:10054000EF93FF938091BB019091BC01892B09F43B
:1005500082C08091B8019091B901019719F5E0919D
:10056000B601F091B701E050FF4F80810E94620315
:100570008091B6019091B70101969093B701809355
:10058000B601FC01E050FF4F8081811164C01092E0
:10059000B7011092B6011092BC011092BB010E94EB
:1005A000500359C08091B8019091B901039719F592
:1005B000E091B401F091B501E25CFE4F80810E94B0
:1005C00062038091B4019091B50101969093B501B9
:1005D0008093B401FC01E25CFE4F808181113BC03D
:1005E0001092B5011092B4011092BC011092BB019F
:1005F0000E94500330C08091B8019091B9010497D6
:1006000051F5E091B201F091B301E75DFE4F8081B9
:100610000E9462038091B2019091B3010196909380
:10062000B3018093B201FC01E75DFE4F808181112F
:1006300012C01092B3011092B2011092BC0110923C
:10064000BB010E9450038091C1019091C20190931F
:10065000B9018093B801FF91EF91BF91AF919F9144
:100660008F917F916F915F914F913F912F910F905B
:100670000FBE0F901F9018951092C10096E09093B6
:10068000C2008093C4000895E1ECF0E080818860AE
:1006900080830895E1ECF0E080818062808308959A
:1006A000E1ECF0E080818F7D80830895E1ECF0E063
:1006B0008081806180830895E1ECF0E08081806832
:1006C000808308958093C60008958091C6000895A0
:1006D000CF93DF9300D000D000D0CDB7DEB7AE010E
:1006E0004B5F5F4FBE016D5F7F4FCE0101960E9451
:1006F000530089819A812AE030E0B9010E944304C5
:10070000E0E0F1E0605D6587805D86878B819C819C
:10071000B9010E944304605D608B805D818B8D8197
:100720009E81B9010E944304605D61A3805D82A344
:1007300026960FB6F894DEBF0FBECDBFDF91CF91E6
:100740000895FC0120812F3409F05DC021812E34F1
:1007500019F0263409F048C02E34D1F4FC0182810E
:100760008A3039F481E090E09093B9018093B80128
:1007700008958091B8019091B9019093C20180933E
:10078000C10184E090E09093B9018093B80108958D
:10079000FC0122812634C9F483818A3039F482E055
:1007A00090E09093B9018093B80108958091B801C9
:1007B0009091B9019093C2018093C10184E090E0CF
:1007C0009093B9018093B80108958091B8019091F8
:1007D000B9019093C2018093C10184E090E09093AD
:1007E000B9018093B80108958091B8019091B90141
:1007F0009093C2018093C10184E090E09093B9018D
:100800008093B8010895223579F5FC0121812335C3
:10081000E1F422812435B1F583818A3039F483E013
:1008200090E09093B9018093B80108958091B80148
:100830009091B9019093C2018093C10184E090E04E
:100840009093B9018093B80108958091B801909177
:10085000B9019093C2018093C10184E090E090932C
:10086000B9018093B80108958091B8019091B901C0
:100870009093C2018093C10184E090E09093B9010C
:100880008093B801089597FB072E16F4009407D0C3
:1008900077FD09D00E94570407FC05D03EF49095DF
:1008A00081959F4F0895709561957F4F0895AA1B7C
:1008B000BB1B51E107C0AA1FBB1FA617B70710F04B
:1008C000A61BB70B881F991F5A95A9F7809590957D
:0A08D000BC01CD010895F894FFCF9C
:1008DA0054656D70657261747572613A2058582C4E
:1008EA0058582043202D2D2048756D656461643A5F
:1008FA0020585820250A0D0000436F6D616E646F01
:10090A00206E6F2076616C69646F0A0D0000526573
:10091A00676973747261646F722064652074656DAF
:10092A00706572617475726120792068756D65648D
:10093A006164200A0D20496E6772657365204F4E07
:10094A003A207061726120656E63656E6465722C0F
:10095A00204F464620706172612061706167617242
:10096A002C205253542070617261207265696E693D
:08097A00636961720A0D0000BF
:00000001FF
